S00D000050726F6A312E737265634B
S113000012C019C72BC02AC029C028C027C026C0C7
S113001025C024C023C022C021C020C01FC01EC0D0
S11300201DC01CC01BC011241FBECFE5D4E0DEBF21
S1130030CDBF10E0A0E6B0E0E4E0F9E102C0059035
S11300400D92A23FB107D9F721E0A2EFB0E001C0C1
S11300501D92A139B207E1F7BBD852CCD1CFCF93CF
S1130060DF93CDB7DEB766970FB6F894DEBF0FBE49
S1130070CDBF9E012F5F3F4F46E16AEA8EEE10D35B
S1130080898190E0982F88272A81822B90930E01F2
S113009080930D018B8190E0982F88272C81822BEF
S11300A09093200180931F018D8190E0982F8827E1
S11300B02E81822B90932201809321018F8190E0E5
S11300C0982F88272885822B90931C0180931B01ED
S11300D0898590E0982F88272A85822B9093160192
S11300E0809315018B8590E0982F88272C85822B8F
S11300F09093100180930F018D8590E0982F8827AD
S11301002E85822B90932A01809329018F8590E07C
S1130110982F88272889822B909324018093230188
S1130120898990E0982F88272A89822B90931E0131
S113013080931D018B8990E0982F88272C89822B2E
S113014090932C0180932B018D8990E0982F882720
S11301502E89822B90930C0180930B018091F200E5
S113016066960FB6F894DEBF0FBECDBFDF91CF9178
S11301700895CF93DF9300D01F92CDB7DEB78EE200
S11301808B839E012D5F3F4F41E064EF8EEE6AD278
S11301908FE097E20197F1F700C000009E012F5F06
S11301A03F4F42E066EF8EEE7BD2898190E0A0E083
S11301B0B0E0BA2FA92F982F88272A81822B809309
S11301C0250190932601A0932701B09328010F9055
S11301D00F900F90DF91CF910895CF93DF9300D0CC
S11301E000D0CDB7DEB784EF8C839E012C5F3F4FE8
S11301F041E064EF8EEE36D28FE19BEC0197F1F78C
S113020000C000009E012F5F3F4F43E066EF8EEE7B
S113021047D229818A8190E0A0E0B0E0BA2FA92FCB
S1130220982F8827A22B2B81822B689414F8B595DC
S1130230A795979587951694D1F78093110190937C
S11302401201A0931301B09314010F900F900F901B
S11302500F90DF91CF910895CF92DF92EF92FF92AA
S11302600F931F9386DF80910F01909110014091AD
S113027025015091260160912701709128019A016E
S1130280AB01281B390B41095109A0911501B0910B
S113029016012DD86B017C010B2EBFE0F594E79479
S11302A0D794C794BA95D1F7B02D60912B01709172
S11302B02C01CB01AA2797FDA095BA2FBC01CD0133
S11302C0052E5BE0660F771F881F991F5A95D1F79B
S11302D0502D20910B0130910C018901222717FD2B
S11302E02095322FA90198012C0D3D1D4E1D5F1D37
S11302F0E2D7C20ED31EE41EF51EC0921701D0929F
S11303001801E0921901F0921A0188E0C80ED11C7C
S1130310E11CF11CC701B601689413F89595879503
S1130320779567951694D1F71F910F91FF90EF90F1
S1130330DF90CF9008954F925F926F927F928F9249
S11303409F92AF92BF92CF92DF92EF92FF92CF93A0
S1130350DF9300D000D0CDB7DEB73FDFC0901701E8
S1130360D0901801E0901901F0901A0120EAC21A05
S11303702FE0D20AE108F108A7019601C701B601EE
S113038055D74B015C01A0912101B0912201B9D74D
S11303902B013C01032E3DE07594679457944794D8
S11303A03A95D1F7302DA0912901B0912A01A501E8
S11303B09401012E1CE055954795379527951A957C
S11303C0D1F7102D9ED7BB2797FDB095AB2F480EC4
S11303D0591E6A1E7B1E32E0430E511C611C711CA7
S11303E0D301C201B595A79597958795B595A7951E
S11303F0979587959C01AD0130584F4F5F4FA09161
S11304001B01B0911C0173D79B01AC01012E1FE0AD
S113041056954795379527951A95D1F7102D298329
S11304203A834B835C8380910D0190910E01AA273E
S113043097FDA095BA2F2C013D01440C551C661C58
S1130440771C440C551C661C771CA0912301B091A9
S11304502401A501940155D74B015C01072E77E1D6
S1130460B594A794979487947A95D1F7702DA09119
S11304701F01B0912001A701960143D7DC01CB01F4
S1130480072E7BE0B595A795979587957A95D1F733
S1130490702D880E991EAA1EBB1E840C951CA61CCA
S11304A0B71C880C991CAA1CBB1C8091110190914B
S11304B01201A0911301B09114019C01AD012819FE
S11304C039094A095B09AAE6B8E111D7992364F00E
S11304D0660F771F881F991F29813A814B815C81A0
S11304E0C8D669017A010BC029813A814B815C81AC
S11304F0C0D669017A01CC0CDD1CEE1CFF1C9927C7
S1130500F7FC9A958F2D7E2D6D2D9B01AC018ED617
S11305109B01AC01AEEDBBE0EAD64C01BB2497FCD9
S1130520B094AB2CA3E4B3EEA7019601ECD6BB27A1
S113053097FDB095AB2F880E991EAA1EBB1E3FECEB
S1130540830E3EE0931EA11CB11C689413F8B5946D
S1130550A794979487941694D1F7C80CD91CEA1CD5
S1130560FB1C61E080E0A1D180E690E090D1C7015E
S1130570B6010F900F900F900F90DF91CF91FF90E5
S1130580EF90DF90CF90BF90AF909F908F907F902F
S11305906F905F904F900895BC0180E49FE155D621
S11305A0862F603148F0772760517109CB01992378
S11305B00CF401969595879580B9089584EA86BFD1
S11305C01092F30086B78095881F8827881F809330
S11305D0F20081111CC017C096B79095991F9927F6
S11305E0991F9093F200992381F08093F3008F5F19
S11305F0893C91F786B78095881F8827881F809348
S1130600F20081E0089580E0089580E0089581E09B
S11306108093F30082E0E0CF8091F200811105C065
S113062084E986BF06B604FCFDCF08959091F200DC
S1130630911106C083B984E886BF06B607FEFDCFD4
S113064008959091F20091110BC020E4829FC001A3
S11306501124846886BF06B607FEFDCF83B10895D2
S113066080E00895FF920F931F93CF93DF93D82FC9
S1130670C62F142FF22E032FA1DF8D2FD7DF8C2F3F
S1130680D5DF112331F0CF2DD02F8991CFDF115039
S1130690E1F7C2DFDF91CF911F910F91FF90089591
S11306A0EF92FF920F931F93CF93DF93D82F162FC0
S11306B0C42FE22EF32E82DF8D2FB8DF812FB6DF19
S11306C07DDF81E08D0FB2DF0FEF0C0FCC2379F0CB
S11306D0CE2DDF2DFF24F394E12C1F2D011101C039
S11306E01E2D812FAEDF899301501111F6CF94DFB7
S11306F0DF91CF911F910F91FF90EF900895FF929A
S11307000F931F93CF93DF9300D000D01F92CDB7E8
S1130710DEB7FE01319695E0DF011D929A95E9F767
S1130720B99AC19ABFEFE0E7F2E0B150E040F0407F
S1130730E1F700C00000C198AFE9BCE81197F1F7F8
S113074000C00000C19AB2E0BA95F1F700C0B998B0
S1130750E8E6EA95F1F7B19954C0F5EDFA95F1F7A9
S11307600000B19B50C025ED2A95F1F70000FE0171
S11307703196DE0116960F2EF7E0FF2EF02D00E0E5
S113078010E061E070E018C0B19BFECF40E54A95EF
S1130790F1F7B19B08C0AB01022E02C0440F551FF4
S11307A00A94E2F7942BB199FECF2150310960F7F6
S11307B09193EA17FB0721F02F2D302F912FE4CFCF
S11307C0B99AC19A9FEFA0E7B2E09150A040B0401F
S11307D0E1F700C0000099816B814A8150E0490F24
S11307E0511D460F511D2C81420F511D2D8130E0AA
S11307F04217530751F4882351F0813051F08FEFA1
S113080009C08FEF07C08FEF05C08FEF03C0862F9D
S113081001C0892F0F900F900F900F900F90DF91D0
S1130820CF911F910F91FF90089580E068DF0895A4
S113083081E065DF089580FF02C0AB9A01C0AB98E8
S113084081FF02C0AA9A01C0AA9882FF02C0A99A95
S113085001C0A99883FF02C0A89A0895A898089592
S1130860CF93C82F979A82958F70E5DF9798979AC0
S11308708C2FE1DF979885E88A95F1F70000CF91F6
S11308800895C098EDDF0895C09AEADF0895CF93E4
S1130890DF93EC018881882329F02196F5DF899183
S11308A08111FCCFDF91CF91089590E4699F800D71
S11308B011248068E6DF089581E0E3DF8FE99FE09B
S11308C00197F1F700C000000895CF93A39AA29A6C
S11308D0A19AA09A8F9AB89A8FE295E70197F1F7B7
S11308E000C00000C0989798C3E0979A83E0A3DF04
S11308F097988FE097E20197F1F700C00000C1508C
S1130900A1F7979A82E097DF97988FEC97E0019789
S1130910F1F700C0000088E2B4DF88E0B2DF81E0D4
S1130920B0DF8FE99FE00197F1F700C0000086E097
S1130930A8DF8CE0A6DFCF91089577DF80930201D2
S113094077DF809301018091F800811112C084DC6B
S11309506093FD007093FE008093FF00909300016C
S1130960EADC6093F9007093FA008093FB009093A3
S1130970FC0008950F931F93CF93DF93809102019E
S11309808F3F89F4909101019F3F69F460E080E01A
S11309908CDF84E690E07BDF61E080E086DF85E742
S11309A090E075DF54C09091F700890F80930201A5
S11309B0909101018091F600890F8093010160E01C
S11309C080E073DF86E890E062DF60E086E06DDF60
S11309D020910201822F992787FD90959F932F9351
S11309E00CE810E01F930F93CDE2D1E0DF93CF9397
S11309F09AD4CE014CDF60E089E057DF8FE890E0C5
S1130A0046DF61E080E051DF81E990E040DF61E0B2
S1130A1086E04BDF20910101822F992787FD909575
S1130A209F932F931F930F93DF93CF937CD4CE0187
S1130A302EDF61E089E039DF86E990E028DF8DB7B9
S1130A409EB70C960FB6F8949EBF0FBE8DBFDF9174
S1130A50CF911F910F910895CF92DF92EF92FF9261
S1130A600F931F93CF93DF938091F80081110AC1F4
S1130A7060E01BDF86E890E00ADF60E086E015DFD7
S1130A806091FD007091FE008091FF009091000143
S1130A900F2EFAE0CF2ED12CE12CF12CF02DA70152
S1130AA0960109D48091F500992787FD9095A92F87
S1130AB0B92F820F931FA41FB51FBF93AF939F93AA
S1130AC08F9308E910E01F930F93CDE2D1E0DF93F9
S1130AD0CF9329D4CE01DBDE60E088E0E6DE8CE94A
S1130AE090E0D5DE60E089E0E0DE6091FD00709189
S1130AF0FE008091FF0090910001A7019601DBD3D5
S1130B009F938F937F936F931F930F93DF93CF9351
S1130B100AD4CE01BCDE60E08BE0C7DE8FE890E053
S1130B20B6DE61E080E0C1DE8EE990E0B0DE609187
S1130B30F9007091FA008091FB009091FC0024E68A
S1130B4030E040E050E0B7D38091F400992787FD6E
S1130B509095A92FB92F820F931FA41FB51F2DB7EE
S1130B603EB7205F3F4F0FB6F8943EBF0FBE2DBF78
S1130B70883E9340A105B10524F061E085E095DE4F
S1130B8003C061E086E091DE6091F9007091FA00A3
S1130B908091FB009091FC000F2EF4E6CF2ED12C17
S1130BA0E12CF12CF02DA701960185D38091F4005E
S1130BB0992787FD9095A92FB92F820F931FA41F02
S1130BC0B51FBF93AF939F938F9388E990E09F9352
S1130BD08F938DE291E09F938F93A5D38DE291E063
S1130BE056DE61E089E061DE8CE990E050DE6091E0
S1130BF0F9007091FA008091FB009091FC00A7012C
S1130C00960159D32DB73EB7285F3F4F0FB6F894DE
S1130C103EBF0FBE2DBF6A307105810591051CF4DE
S1130C2084EA90E034DE61E08AE03FDE6091FD001A
S1130C307091FE008091FF009091000124E630E065
S1130C4040E050E038D39F938F937F936F9388E96C
S1130C5090E09F938F938DE291E09F938F9363D362
S1130C608DE291E014DE61E08DE01FDE86EA90E023
S1130C700EDE8DB79EB708960FB6F8949EBF0FBED2
S1130C808DBF0CC060E080E010DE8AEA90E0FFDDFA
S1130C9061E080E00ADE85E790E0F9DDDF91CF9145
S1130CA01F910F91FF90EF90DF90CF9008950F93D5
S1130CB01F93CF93DF9360E080E0F7DD8CEB90E04F
S1130CC0E6DD60E083E0F1DD2091F700822F9927D3
S1130CD087FD90959F932F9300EC10E01F930F9343
S1130CE0CDE2D1E0DF93CF931ED3CE01D0DD60E01F
S1130CF089E0DBDD85EC90E0CADD60E08CE0D5DDE9
S1130D002091F600822F992787FD90959F932F932A
S1130D101F930F93DF93CF9306D3CE01B8DD61E029
S1130D2080E0C3DD89EC90E0B2DD61E083E0BDDD0D
S1130D302091F500822F992787FD90959F932F93FB
S1130D401F930F93DF93CF93EED2CE01A0DD61E02A
S1130D5089E0ABDD8DEC90E09ADD61E08CE0A5DD0F
S1130D602091F400822F992787FD90959F932F93CC
S1130D701F930F93DF93CF93D6D2CE0188DD8DB727
S1130D809EB748960FB6F8949EBF0FBE8DBFDF91F5
S1130D90CF911F910F91089586E090E0B6D480938F
S1130DA0F700E199FECF84E090E0AFD48093F600A1
S1130DB0E199FECF44E050E065EF70E082E090E01E
S1130DC094D4E199FECF44E050E060E070E084EF19
S1130DD090E08BD4E199FECF08956EDD60E081E070
S1130DE064DD81ED90E053DD6091F700772767FDC6
S1130DF0709586E090E0A4D4E199FECF6091F6006E
S1130E00772767FD709584E090E09AD4E199FECF4E
S1130E1044E050E062E070E085EF90E07BD4E1993B
S1130E20FECF44E050E060E070E084EF90E072D4E4
S1130E30E199FECF08951F920F920FB60F921124DD
S1130E40DF92EF92FF920F931F932F933F934F9351
S1130E505F936F937F938F939F93AF93BF93CF933E
S1130E60DF93EF93FF9328DD60E086E01EDD8AEBDD
S1130E7090E00DDDC0E0D0E010E0D12CE12CFF24A7
S1130E80F39400E002C0CF2DD02F11DF849986C0E7
S1130E909FEF23EF81E0915020408040E1F700C0B4
S1130EA0000084997BC01F5F153048F4113009F1AC
S1130EB038F01230B9F1133009F44DC064C010E0B9
S1130EC060E086E0F2DC8AEB90E0E1DC60E08FE059
S1130ED0ECDC80EE90E0DBDC61E086E0E6DC80EEDA
S1130EE090E0D5DC61E08FE0E0DC80EE90E0CFDCE8
S1130EF04AC060E086E0D9DC80EE90E0C8DC60E0C7
S1130F008FE0D3DC8AEB90E0C2DC61E086E0CDDCEC
S1130F1080EE90E0BCDC61E08FE0C7DC80EE90E026
S1130F20B6DC31C060E086E0C0DC80EE90E0AFDC8F
S1130F3060E08FE0BADC80EE90E0A9DC61E086E05E
S1130F40B4DC8AEB90E0A3DC61E08FE0AEDC80EE01
S1130F5090E09DDC18C060E086E0A7DC80EE90E0C5
S1130F6096DC60E08FE0A1DC80EE90E090DC61E054
S1130F7086E09BDC80EE90E08ADC61E08FE095DC2B
S1130F808AEB90E084DC9FEF20E782E091502040E0
S1130F908040E1F700C00000CD2DDE2D81996CC0AA
S1130FA08FEF93EF21E0815090402040E1F700C0A3
S1130FB00000819961C01130F9F030F01230A1F1D4
S1130FC0133009F449C056C08091F70081508093D2
S1130FD0F7006DDE60E086E068DC8AEB90E057DCC9
S1130FE08FEF91EE24E0815090402040E1F700C063
S1130FF00000CD2DDE2D40C08091F60081508093FD
S1131000F60055DE60E08FE050DC8AEB90E03FDCD8
S11310102FEF81EE94E0215080409040E1F700C032
S11310200000CD2DDE2D28C08091F50081508093E5
S1131030F5003DDE61E086E038DC8AEB90E027DCF9
S11310409FEF21EE84E0915020408040E1F700C002
S11310500000CD2DDE2D10C08091F40081508093CE
S1131060F40061E08FE021DC8AEB90E010DCCD2D10
S1131070DE2D02C0CD2DDE2D80996CC09FEF23EFB5
S113108081E0915020408040E1F700C00000809949
S113109061C01130F9F030F01230A1F1133009F4CD
S11310A049C056C08091F7008F5F8093F700FFDD41
S11310B060E086E0FADB8AEB90E0E9DB9FEF21EE6B
S11310C084E0915020408040E1F700C00000CD2D25
S11310D0DE2D40C08091F6008F5F8093F600E7DD3F
S11310E060E08FE0E2DB8AEB90E0D1DB8FEF91EE02
S11310F024E0815090402040E1F700C00000CD2D55
S1131100DE2D28C08091F5008F5F8093F500CFDD40
S113111061E086E0CADB8AEB90E0B9DB2FEF81EE79
S113112094E0215080409040E1F700C00000CD2DB4
S1131130DE2D10C08091F4008F5F8093F40061E095
S11311408FE0B3DB8AEB90E0A2DBCD2DDE2D02C075
S1131150CD2DDE2D20B390B330B381E09695917000
S11311609827229521708227892B09F08CCE30FF95
S11311708ACE2196C83E23E0D2070CF486CE2DDE1B
S1131180FF91EF91DF91CF91BF91AF919F918F919B
S11311907F916F915F914F913F912F911F910F918B
S11311A0FF90EF90DF900F900FBE0F901F90189557
S11311B060E080E07ADB82EE90E069DB2FEF88E08C
S11311C09DE3215080409040E1F700C00000089565
S11311D07CDB84E690E0E0D942D78093F800DCDD44
S11311E081B3887E81BB82B3876182BB85B782600D
S11311F085BF8BB780648BBF7894DADF9EDB5CDBC2
S1131200B9DB2FEF87EA91E6215080409040E1F767
S113121000C0000051DB20DC2FEF87EA91E621506B
S113122080409040E1F700C00000E8CFDB018F93DD
S11312309F935DD0BF91AF91A29F800D911DA39FFD
S1131240900DB29F900D11240895AA1BBB1B51E170
S113125007C0AA1FBB1FA617B70710F0A61BB70B22
S1131260881F991F5A95A9F780959095BC01CD01C7
S11312700895A1E21A2EAA1BBB1BFD010DC0AA1FD3
S1131280BB1FEE1FFF1FA217B307E407F50720F0EB
S1131290A21BB30BE40BF50B661F771F881F991F66
S11312A01A9469F760957095809590959B01AC01AF
S11312B0BD01CF010895052E97FB16F400940FD0BD
S11312C057FD05D0D6DF07FC02D046F408C0509580
S11312D04095309521953F4F4F4F5F4F089590951E
S11312E08095709561957F4F8F4F9F4F08950FD0D4
S11312F0A59F900DB49F900DA49F800D911D112466
S11313000895B7FFF4CFF3DF821B930B0895A29FD8
S1131310B001B39FC001A39F01D0B29F700D811D86
S11313201124911D0895AEE0B0E0E8E9F9E0BFC2F0
S11313300D891E8986E08C831A8309838FEF9FE7CA
S11313409E838D83AE01475E5F4F6F89788DCE019A
S1131350019608D0EF81F885E00FF11F10822E96D8
S1131360E4E0C1C2ACE0B0E0E7EBF9E092C27C019A
S11313706B018A01FC0117821682838181FFB0C14F
S1131380CE0101964C01F7019381F60193FD8591FD
S113139093FF81916F01882309F49EC1853239F44A
S11313A093FD859193FF81916F01853221F4B701FB
S11313B090E0DFD1E8CF512C312C20E02032A0F492
S11313C08B3269F030F4803259F0833269F4206151
S11313D02CC08D3239F0803339F4216026C022606C
S11313E0246023C0286021C027FD27C030ED380FBA
S11313F03A3078F426FF06C0FAE05F9E300D1124DF
S1131400532E13C08AE0389E300D1124332E2062EF
S11314100CC08E3221F426FD5FC1206406C08C36D8
S113142011F4206802C0883641F4F60193FD8591D9
S113143093FF81916F018111C1CF982F9F7D9554A6
S1131440933028F40C5F1F4FFFE3F9830DC08336FC
S113145031F0833771F0833509F057C021C0F801AA
S1131460808189830E5F1F4F44244394512C54017F
S113147014C03801F2E06F0E711CF801A080B18035
S113148026FF03C0652D70E002C06FEF7FEFC5013A
S11314902C8764D12C0183012C852F77222E16C032
S11314A03801F2E06F0E711CF801A080B18026FFB4
S11314B003C0652D70E002C06FEF7FEFC5012C877C
S11314C042D12C012C852068222E830123FC19C0D3
S11314D0832D90E048165906A0F4B70180E290E00D
S11314E048D13A94F5CFF50127FC859127FE8191E7
S11314F05F01B70190E03DD131103A94F1E04F1A09
S113150051084114510479F7DEC0843611F089364C
S113151031F5F80127FF07C06081718182819381D1
S11315200C5F1F4F08C060817181882777FD80950B
S1131530982F0E5F1F4F2F76B22E97FF09C09095FC
S11315408095709561957F4F8F4F9F4F2068B22E85
S11315502AE030E0A4013FD1A82EA81843C0853763
S113156029F42F7EB22E2AE030E025C0F22FF97F35
S1131570BF2E8F36C1F018F4883579F0ADC08037AE
S113158019F0883721F0A8C02F2F2061B22EB4FEA5
S11315900DC08B2D8460B82E09C024FF0AC09F2F74
S11315A09660B92E06C028E030E005C020E130E0A6
S11315B002C020E132E0F801B7FE07C0608171810A
S11315C0828193810C5F1F4F06C06081718180E02E
S11315D090E00E5F1F4FA401FED0A82EA818FB2D8B
S11315E0FF77BF2EB6FE0BC02B2D2E7FA51450F413
S11315F0B4FE0AC0B2FC08C02B2D2E7E05C07A2C86
S11316002B2D03C07A2C01C0752C24FF0DC0FE01C4
S1131610EA0DF11D8081803311F4297E09C022FF77
S113162006C07394739404C0822F867809F073946F
S113163023FD12C020FF06C05A2C731418F4530C57
S11316405718732C731460F4B70180E290E02C8770
S113165090D073942C85F6CF731410F4371801C00E
S1131660312C24FF11C0B70180E390E02C8781D096
S11316702C8522FF16C021FF03C088E590E002C03C
S113168088E790E0B7010CC0822F867851F021FDE5
S113169002C080E201C08BE227FD8DE2B70190E039
S11316A068D0A51430F4B70180E390E062D05A9476
S11316B0F8CFAA94F401EA0DF11D8081B70190E0FE
S11316C058D0A110F6CF332009F45DCEB70180E2E3
S11316D090E04FD03A94F7CFF7018681978102C00A
S11316E08FEF9FEF2C96E2E1F0C0DC01CB01FC010F
S11316F0E199FECF06C0FFBBEEBBE09A31960DB276
S11317000D9241505040B8F70895A8E1B0E042E08E
S113171050E0EDCFDC01CB0102C02D9105D041504A
S11317205040D8F70895262FE199FECF9FBB8EBB7A
S11317302DBB0FB6F894E29AE19A0FBE0196089574
S1131740F2DF272FF1CFFC010590615070400110AA
S1131750D8F7809590958E0F9F1F0895FC016150D6
S1131760704001900110D8F7809590958E0F9F1FBF
S113177008950F931F93CF93DF93182F092FEB0135
S11317808B8181FD03C08FEF9FEF20C082FF10C0CB
S11317904E815F812C813D81421753077CF4E8819F
S11317A0F9819F012F5F3F4F39832883108306C03F
S11317B0E885F985812F0995892B29F72E813F81A9
S11317C02F5F3F4F3F832E83812F902FDF91CF9147
S11317D01F910F910895FA01AA27283051F1203161
S11317E081F1E8946F936E7F6E5F7F4F8F4F9F4FB1
S11317F0AF4FB1E03ED0B4E03CD0670F781F891FF3
S11318009A1FA11D680F791F8A1F911DA11D6A0FC0
S1131810711D811D911DA11D20D009F468943F9173
S11318202AE0269F11243019305D3193DEF6CF0172
S11318300895462F4770405D4193B3E00FD0C9F738
S1131840F6CF462F4F70405D4A3318F0495D31FDA5
S11318504052419302D0A9F7EACFB4E0A6959795F8
S1131860879577956795BA95C9F7009761057105CE
S113187008959B01AC010A2E069457954795379518
S11318802795BA95C9F7620F731F841F951FA01D72
S113189008952F923F924F925F926F927F928F9210
S11318A09F92AF92BF92CF92DF92EF92FF920F93EB
S11318B01F93CF93DF93CDB7DEB7CA1BDB0B0FB6F5
S11318C0F894DEBF0FBECDBF09942A8839884888B2
S11318D05F846E847D848C849B84AA84B984C88448
S11318E0DF80EE80FD800C811B81AA81B981CE0F3F
S11318F0D11D0FB6F894DEBF0FBECDBFED01089524
S1071900F894FFCF85
S1131904656E64002A2A2A2A204448543131202A44
S11319142A2A2A2A002A2A2A2A204552524F5220A5
S11319242A2A2A2A2A0054656D703A002564004341
S11319340048756D3A002500256C64002E00507231
S113194465733A003000685061002A2A2A2A20422A
S11319544D50313830202A2A2A2A2A0054443A0085
S1131964253032640048443A0054423A0050423A22
S113197400536176696E67206368616E67657300FE
S11319842000535441434A4120504F474F444F573A
S105199441000C
S9030000FC
